{
  "_format": "hh-sol-artifact-1",
  "contractName": "Box",
  "sourceName": "contracts/Box.sol",
  "abi": [
    {
      "anonymous": false,
      "inputs": [
        {
          "indexed": true,
          "internalType": "address",
          "name": "previousOwner",
          "type": "address"
        },
        {
          "indexed": true,
          "internalType": "address",
          "name": "newOwner",
          "type": "address"
        }
      ],
      "name": "OwnershipTransferred",
      "type": "event"
    },
    {
      "anonymous": false,
      "inputs": [
        {
          "indexed": false,
          "internalType": "uint256",
          "name": "newValue",
          "type": "uint256"
        }
      ],
      "name": "PublicValueChanged",
      "type": "event"
    },
    {
      "anonymous": false,
      "inputs": [
        {
          "indexed": false,
          "internalType": "uint256",
          "name": "newValue",
          "type": "uint256"
        }
      ],
      "name": "RestrictedValueChanged",
      "type": "event"
    },
    {
      "inputs": [],
      "name": "owner",
      "outputs": [
        {
          "internalType": "address",
          "name": "",
          "type": "address"
        }
      ],
      "stateMutability": "view",
      "type": "function"
    },
    {
      "inputs": [],
      "name": "renounceOwnership",
      "outputs": [],
      "stateMutability": "nonpayable",
      "type": "function"
    },
    {
      "inputs": [],
      "name": "retrievePublic",
      "outputs": [
        {
          "internalType": "uint256",
          "name": "",
          "type": "uint256"
        }
      ],
      "stateMutability": "view",
      "type": "function"
    },
    {
      "inputs": [],
      "name": "retrieveRestricted",
      "outputs": [
        {
          "internalType": "uint256",
          "name": "",
          "type": "uint256"
        }
      ],
      "stateMutability": "view",
      "type": "function"
    },
    {
      "inputs": [
        {
          "internalType": "uint256",
          "name": "newValue",
          "type": "uint256"
        }
      ],
      "name": "storePublic",
      "outputs": [],
      "stateMutability": "nonpayable",
      "type": "function"
    },
    {
      "inputs": [
        {
          "internalType": "uint256",
          "name": "newValue",
          "type": "uint256"
        }
      ],
      "name": "storeRestricted",
      "outputs": [],
      "stateMutability": "nonpayable",
      "type": "function"
    },
    {
      "inputs": [
        {
          "internalType": "address",
          "name": "newOwner",
          "type": "address"
        }
      ],
      "name": "transferOwnership",
      "outputs": [],
      "stateMutability": "nonpayable",
      "type": "function"
    }
  ],
  "bytecode": "0x608060405234801561001057600080fd5b5060006100216100c460201b60201c565b9050806000806101000a81548173ffffffffffffffffffffffffffffffffffffffff021916908373ffffffffffffffffffffffffffffffffffffffff1602179055508073ffffffffffffffffffffffffffffffffffffffff16600073ffffffffffffffffffffffffffffffffffffffff167f8be0079c531659141344cd1fd0a4f28419497f9722a3daafe3b4186f6b6457e060405160405180910390a3506100cc565b600033905090565b6106cd806100db6000396000f3fe608060405234801561001057600080fd5b506004361061007d5760003560e01c8063a9ad2fae1161005b578063a9ad2fae146100de578063b75af905146100fc578063d17689aa1461012a578063f2fde38b146101585761007d565b8063715018a614610082578063806da9bd1461008c5780638da5cb5b146100aa575b600080fd5b61008a61019c565b005b610094610309565b6040518082815260200191505060405180910390f35b6100b2610313565b604051808273ffffffffffffffffffffffffffffffffffffffff16815260200191505060405180910390f35b6100e661033c565b6040518082815260200191505060405180910390f35b6101286004803603602081101561011257600080fd5b8101908080359060200190929190505050610346565b005b6101566004803603602081101561014057600080fd5b8101908080359060200190929190505050610387565b005b61019a6004803603602081101561016e57600080fd5b81019080803573ffffffffffffffffffffffffffffffffffffffff169060200190929190505050610477565b005b6101a4610669565b73ffffffffffffffffffffffffffffffffffffffff166101c2610313565b73ffffffffffffffffffffffffffffffffffffffff161461024b576040517f08c379a00000000000000000000000000000000000000000000000000000000081526004018080602001828103825260208152602001807f4f776e61626c653a2063616c6c6572206973206e6f7420746865206f776e657281525060200191505060405180910390fd5b600073ffffffffffffffffffffffffffffffffffffffff1660008054906101000a900473ffffffffffffffffffffffffffffffffffffffff1673ffffffffffffffffffffffffffffffffffffffff167f8be0079c531659141344cd1fd0a4f28419497f9722a3daafe3b4186f6b6457e060405160405180910390a360008060006101000a81548173ffffffffffffffffffffffffffffffffffffffff021916908373ffffffffffffffffffffffffffffffffffffffff160217905550565b6000600154905090565b60008060009054906101000a900473ffffffffffffffffffffffffffffffffffffffff16905090565b6000600254905090565b806001819055507fd2593866eb9337fe0adbba1a6ceb539fbee4be1744bf3614590b045414ab00a2816040518082815260200191505060405180910390a150565b61038f610669565b73ffffffffffffffffffffffffffffffffffffffff166103ad610313565b73ffffffffffffffffffffffffffffffffffffffff1614610436576040517f08c379a00000000000000000000000000000000000000000000000000000000081526004018080602001828103825260208152602001807f4f776e61626c653a2063616c6c6572206973206e6f7420746865206f776e657281525060200191505060405180910390fd5b806002819055507f17c4873855491303f29453a75f670f51a50f5db30960b9828e099f9020d06fe5816040518082815260200191505060405180910390a150565b61047f610669565b73ffffffffffffffffffffffffffffffffffffffff1661049d610313565b73ffffffffffffffffffffffffffffffffffffffff1614610526576040517f08c379a00000000000000000000000000000000000000000000000000000000081526004018080602001828103825260208152602001807f4f776e61626c653a2063616c6c6572206973206e6f7420746865206f776e657281525060200191505060405180910390fd5b600073ffffffffffffffffffffffffffffffffffffffff168173ffffffffffffffffffffffffffffffffffffffff1614156105ac576040517f08c379a00000000000000000000000000000000000000000000000000000000081526004018080602001828103825260268152602001806106726026913960400191505060405180910390fd5b8073ffffffffffffffffffffffffffffffffffffffff1660008054906101000a900473ffffffffffffffffffffffffffffffffffffffff1673ffffffffffffffffffffffffffffffffffffffff167f8be0079c531659141344cd1fd0a4f28419497f9722a3daafe3b4186f6b6457e060405160405180910390a3806000806101000a81548173ffffffffffffffffffffffffffffffffffffffff021916908373ffffffffffffffffffffffffffffffffffffffff16021790555050565b60003390509056fe4f776e61626c653a206e6577206f776e657220697320746865207a65726f2061646472657373a264697066735822122005a3ac3d7a995be060dfe7f2fec06cfbd5d185fda3d304d89dc49c6c1d54760d64736f6c63430007030033",
  "linkReferences": {},
  "deployedLinkReferences": {}
}